:04000000CFEF4AF004
:1000080000C015F0F2AA1BD0F2A419D0F294000E89
:10001800491802E1000E481805E17F0ED516010EB9
:100028000101356F8EA602D08E9605D08E86010E00
:10003800485E000E495A41C1D7FF3FC1D6FF9DA077
:100048001AD09EA018D09E90000E471802E1000E0C
:10005800461804E10101CD90010E366F8EA202D040
:100068008E9205D08E82010E465E000E475A48C118
:10007800CFFF40C1CEFFA0A237D0A1A235D0A19218
:10008800000E4B1802E1000E4A1804E10101B1907C
:10009800010E3B6F8EAA02D08E9A22D08E8A010E54
:1000A8004A5E000E4B5A84AA0CD084A80AD084A6B3
:1000B80008D084A406D04C50000A03E1010E4C6E0F
:1000C8000FD04C50010A0CE184AA07D084A805D0AF
:1000D80084A603D084A401D003D04C6A4A6A4B6A30
:1000E80049C1B3FF47C1B2FFF2A807D0F2A205D0B9
:1000F800F292FF0E0001B16F817E15C000F0110071
:080108000AAE029E000E120077
:100110000B840BAE93EF00F0010E036E026A016ACE
:0A012000006A0A360232FF0E1200D8
:0E012A00026A016A006A086A036A000E120087
:100138000B820BAEA6EF00F0036802680168006846
:080148000A360232FF0E12001C
:10015000480E0C6E6C0E0D6E0D2EFED70C2EFCD7BD
:040160000000120089
:100164000CB0F4EF00F00CA29AEF01F00E6A000E4E
:1001740002640BEF01F0F00E0214D8A4D6EF00F0E5
:10018400023A01380F0B02260138F00B016E0038D9
:100194000F0B01260038F00B006E08380F0B0026F9
:1001A4000838F00B086E0E84D89002BEEFEF00F012
:1001B40008360036013602360E2A02BEEFEF00F092
:1001C40008360036013602360E2A02BEEFEF00F082
:1001D40008360036013602360E2A0E50036490EFBC
:1001E40001F0035E0BBC08AE95EF01F0D880800EE1
:1001F40008640030000E002201220222D8A095EFEC
:1002040001F0023201320032034A9AEF01F095EF15
:1002140001F001C002F000C001F008C000F0086A5B
:10022400000E0E86026442EF01F0F00E0214D8A410
:100234002AEF01F0023A01380F0B02260138F00BC5
:10024400016E00380F0B01260038F00B006E0E848F
:10025400D89002BEEFEF00F00036013602360E2AC7
:1002640002BEEFEF00F00036013602360E2A02BE5F
:10027400EFEF00F00036013602360E2AEFEF00F001
:1002840001C002F000C001F0006A000E0E960E8854
:1002940002646FEF01F0F00E0214D8A45AEF01F0DB
:1002A400023A01380F0B02260138F00B016E0E845E
:1002B400D89002BEEFEF00F0013602360E2A02BEDD
:1002C400EFEF00F0013602360E2A02BEEFEF00F027
:1002D400013602360E2AEFEF00F001C002F0016A87
:1002E400000E0E8602649FEF01F0F00E0214D8A4F3
:1002F4007EEF01F0023A0E84D89002BEEFEF00F0D8
:1003040002360E2A02BEEFEF00F002360E2A02BEBB
:10031400EFEF00F002360E2AEFEF00F0010E0C6E44
:10032400F5DEA2EF01F0020E0C6EECDEA2EF01F09E
:10033400040E0C6EFFDEA2EF01F0080E0C6EF3DE6D
:020344001200A5
:0A034600030E0D6E0D2EFED71200FF
:0C035000A60E0D6E0D2EFED70000120050
:10035C00025006180E6E086A096A0B6A035007648D
:10036C00A1EF02F006500A6E068E028E03500B6E41
:10037C000750036E000E0B64F1EF01F00B50075E9B
:10038C00D8B492EF02F0070E076460EF02F0075E3C
:10039C0000C008F001C000F002C001F0026A074E74
:1003AC0092EF02F0076435EF02F0075E00C008F030
:1003BC0001C000F0016A074E92EF02F0076413EFE0
:1003CC0002F0075E00C008F0006A074E92EF02F0E0
:1003DC000764FAEF01F00AC002F005C001F004C096
:1003EC0000F0086ABBEF03F0030E076405EF02F0A0
:1003FC00075E08380F0B086E074E92EF02F0D8908C
:10040C000832074E92EF02F0D8900832074E92EF66
:10041C0002F0D890083292EF02F0030E076424EF3A
:10042C0002F0075E08380F0B086E0038F00B082638
:10043C0000380F0B006E074E92EF02F0D89000328E
:10044C000832074E92EF02F0D89000320832074E75
:10045C0092EF02F0D8900032083292EF02F0030EC5
:10046C0007644CEF02F0075E08380F0B086E00387B
:10047C00F00B082600380F0B006E0138F00B00262D
:10048C0001380F0B016E074E92EF02F0D89001323B
:10049C0000320832074E92EF02F0D890013200324F
:1004AC000832074E92EF02F0D89001320032083237
:1004BC0092EF02F0030E07647DEF02F0075E08383E
:1004CC000F0B086E0038F00B082600380F0B006E6F
:1004DC000138F00B002601380F0B016E0238F00BBF
:1004EC00012602380F0B026E074E92EF02F0D890E5
:1004FC000232013200320832074E92EF02F0D890ED
:10050C000232013200320832074E92EF02F0D890DC
:10051C000232013200320832096A000E0EAE86EF4A
:10052C0003F0081E001E011E021E082A00220122D2
:10053C00022286EF03F00750D8A4A7EF02F0BBEF1E
:10054C0003F0096A02C00AF0028E068E0750035CA3
:10055C00076ED8B479EF03F0070E076447EF03F08A
:10056C00075E0450096E0550046E0650056E066A4F
:10057C00074E79EF03F0070E07641CEF03F0075EDC
:10058C000450096E0550046E056A074E79EF03F0AE
:10059C00070E0764FAEF02F0075E0450096E046A56
:1005AC00074E79EF03F0070E0764E1EF02F00AC083
:1005BC0002F0BBEF03F0030E0764ECEF02F0075EF2
:1005CC0009380F0B096E074E79EF03F0D8900932FA
:1005DC00074E79EF03F0D8900932074E79EF03F00C
:1005EC00D890093279EF03F0030E07640BEF03F098
:1005FC00075E09380F0B096E0438F00B0926043816
:10060C000F0B046E074E79EF03F0D89004320932C9
:10061C00074E79EF03F0D89004320932074E79EF88
:10062C0003F0D8900432093279EF03F0030E07641B
:10063C0033EF03F0075E09380F0B096E0438F00B2B
:10064C00092604380F0B046E0538F00B0426053808
:10065C000F0B056E074E79EF03F0D890053204327C
:10066C000932074E79EF03F0D89005320432093283
:10067C00074E79EF03F0D89005320432093279EF46
:10068C0003F0030E076464EF03F0075E09380F0BE9
:10069C00096E0438F00B092604380F0B046E05386C
:1006AC00F00B042605380F0B056E0638F00B0526EB
:1006BC0006380F0B066E074E79EF03F0D890063212
:1006CC00053204320932074E79EF03F0D890063226
:1006DC00053204320932074E79EF03F0D890063216
:1006EC00053204320932086A000E0EAE86EF03F0B2
:1006FC00091E041E051E061E092A042205220622B6
:10070C0009500826045000220550012206500222EE
:10071C000EBE9DEF03F0D8A0ACEF03F00232013215
:10072C0000320832033EACEF03F0B6EF03F0D8B062
:10073C00B1EF03F0000E081E001E011E021E082A57
:10074C000022012202220A7EB1EF03F0010E0C6E90
:10075C0003DDBDEF03F0020E0C6EFEDCBDEF03F00B
:10076C00040E0C6EE3DCBDEF03F0000E0C6E1200F9
:10077C000A6A0350D8A40A800750D8A40A820A50E7
:10078C00D8B421EF04F0030AD8B4DAEF03F00AB0BE
:10079C00D5EF03F006AE1FEF04F01DEF04F002AE30
:1007AC001DEF04F01FEF04F00250800B0A6E029E46
:1007BC000650800B069E0A18D8B4EBEF03F00A50D3
:1007CC00D8B41DEF04F01FEF04F00750035CD8B44D
:1007DC00F5EF03F0D8A011EF04F017EF04F006507A
:1007EC00025CD8B4FFEF03F0D8A011EF04F017EFC0
:1007FC0004F00550015CD8B409EF04F0D8A011EF57
:10080C0004F017EF04F00450005CD8B421EF04F0AE
:10081C00D8B017EF04F00A52D8B41FEF04F01DEF54
:10082C0004F00A52D8B41DEF04F01FEF04F0D88086
:0E083C001200D8901200D880D884120012004A
:08084A000B6A0B86FF0E120081
:10085200020158BF02D0919E01D0918E58BD02D0A4
:10086200919C01D0918C58BB02D0919A01D0918A6F
:1008720058B902D0919801D0918801016AB102D091
:10088200918401D0919491865DDD9196020158B7D1
:1008920002D0919E01D0918E58B502D0919C01D088
:1008A200918C58B302D0919A01D0918A58B102D05A
:1008B200919801D0918801016AB102D0918401D04E
:1008C200919491863FDD91966AA102D040DC01D0DD
:0408D2003EDD1200F5
:1008D600086A096A000E07620364F0EF04F002502A
:1008E60006180A6E075003267E0ED8A081EF04F084
:1008F600035ED8B0F5EF04F085EF04F0035ED8A0F0
:10090600FAEF04F0028E068E02C00EF001C00BF064
:1009160000C00DF000500402F4CF0CF001500502A7
:10092600F4CF00F0F3CF08F00402F3500C26F45095
:100936000822000E00220D500502F3500C26F4503A
:100946000822000E002202500402F3500826F4503A
:10095600002202500502016A000E0122F350002611
:10096600F45001220D500602F3500826F4500022DE
:10097600026A000E012202220B500602F3500026E4
:10098600F4500122000E02220E500602F3500126F8
:10099600F450022202BED8EF04F0083600360136C3
:1009A60002360306D8B4FAEF04F0EBEF04F0D88071
:1009B600800E08640030000E002201220222D8A018
:1009C600EBEF04F0023201320032034AF5EF04F095
:1009D6000AAE029E000EFDEF04F0010E95EC00F04B
:1009E600FDEF04F0020E9CEC00F0FDEF04F0040EA7
:0609F60088EC00F0120085
:1009FC0002014B6B4C6B828C4B6B4C6B000E4C5D49
:100A0C0002E1190E4B5D19E20D0E0C6EFB0E0D6E14
:100A1C000D2EFED70C2EFCD700000000828E0D0E82
:100A2C000C6EFB0E0D6E0D2EFED70C2EFCD700009F
:0C0A3C000000829E4B4B4C2BE1D71200B7
:100A480002014B6B4C6B829C4B6B4C6B000E4C5DEC
:100A580002E1190E4B5D19E20D0E0C6EFB0E0D6EC8
:100A68000D2EFED70C2EFCD700000000828E0D0E36
:100A78000C6EFB0E0D6E0D2EFED70C2EFCD7000053
:0C0A88000000829E4B4B4C2BE1D712006B
:0E0A940001016A914BC258F2DADE6A8112004B
:060AA200067E5BDC120081
:100AA800070E0C6E760E0D6E0D2EFED70C2EFCD793
:040AB8000000120028
:100ABC000450000A12E10550000A0FE10650000A2A
:100ACC000CE10750000A09E1FF0E006EFF0E016EEB
:100ADC007F0E026EFF0E036EA7D0086A096A0750DC
:100AEC00D8B409EF06F00350D8B40DEF06F002505D
:100AFC0006180A6E028E068E0E6A02C008F001C03D
:100B0C000CF000C00DF004500D5E0550D8A0053C53
:100B1C000C5E0650D8A0063C085E086A0C6A0D6A8A
:100B2C00D8A0A0EF05F0D890023201320032083282
:100B3C00010E0E6E0750035ED8A0ADEF05F07E0ED1
:100B4C000E240326D8B012EF06F0B3EF05F07E0E9C
:100B5C000E240326D8A017EF06F0180E0B6E0D36D8
:100B6C000C3608360036013602360E360450005E5E
:100B7C000550D8A0053C015E0650D8A0063C025E8C
:100B8C0006340E120EA0CEEF05F00D80D9EF05F055
:100B9C00045000260550D8B0053C01260650D8B0AC
:100BAC00062802260D900B2EB5EF05F0FFEF05F091
:100BBC00D8900036013602360E360450005E0550D1
:100BCC00D8A0053C015E0650D8A0063C025E063457
:100BDC000E10010B0D26D8B00C2AD8B4082AD8A4B4
:100BEC00FFEF05F008320C320D32032AD8B412EFA5
:100BFC0006F00AAE089E0850026E0C50016E0D50A5
:100C0C00006E1AEF06F0010E1ADE1AEF06F0020E55
:100C1C0095EC00F01AEF06F0040E9CEC00F01AEFC5
:0A0C2C0006F0080E88EC00F012003C
:100C360003500718D8A42FEF06F002500618D8A4C0
:100C46002FEF06F001500518D8A42FEF06F000503C
:0E0C56000418D8B4D8841200D89412001200EA
:100C64000B800BAE3EEF06F0026A0AAEFF0E026E78
:0C0C7400016E006E0A360232FF0E120004
:100C8000046A056A066A076A4BC200F04CC201F0AA
:100C90004DC202F04EC203F071DD010ED8B0000E5D
:100CA000006E00520EE0000E02014B19006E000EA5
:100CB0004C19016E800E4D19026E000E4E19036E16
:100CC00008D04BC200F04CC201F04DC202F04EC23F
:040CD00003F012001B
:100CD40052C200F053C201F0000E020153BFFF0ED6
:100CE400026E036E0036009001360236033600367B
:100CF40000900136023603364F510024F66E5051EF
:100D04000120F76E51510220F86E0900F5CF54F21C
:100D14000900F5CF55F20900F5CF56F20900F5CFD9
:100D240057F25251531148E04BC200F04CC201F04B
:100D34004DC202F04EC203F054C204F055C205F095
:100D440056C206F057C207F0C4DD010E525F000E12
:100D5400535B52C204F053C205F0000E53BFFF0EA2
:100D6400066E076E043604900536063607360436DA
:100D740004900536063607364F510424F66E50515A
:100D84000520F76E51510620F86E0900F5CF04F0E6
:100D94000900F5CF05F00900F5CF06F00900F5CFFD
:100DA40007F0AEEC01F000C054F201C055F202C0ED
:100DB40056F203C057F2B5D754C200F055C201F041
:0A0DC40056C202F057C203F01200FD
:100DCE003AC24BF23BC24CF23CC24DF23DC24EF225
:100DDE0050DF00C043F201C044F202C045F203C02E
:100DEE0046F2046A056A066A076A1EDF010ED8A477
:100DFE00000E006E005205E0006A016A026A036A84
:100E0E00F1D043C204F044C205F045C206F046C21A
:100E1E0007F0000E006E000E016E000E026E7F0EC9
:100E2E00036EA5DC010ED8B0000E006E00C042F2BB
:100E3E00005219E043C204F044C205F045C206F068
:100E4E0046C207F0000E006E000E016E000E026E1E
:100E5E007F0E036E2CDE00C043F201C044F202C0CE
:100E6E0045F203C046F243C200F044C201F045C24F
:100E7E0002F046C203F043C204F044C205F045C27C
:100E8E0006F046C207F020DD00C047F201C048F26E
:100E9E0002C049F203C04AF200C04BF201C04CF24C
:100EAE0002C04DF203C04EF2080E02014F6F9B0EB0
:100EBE00506F000E516F050E526F000E536F03DF11
:100ECE0043C204F044C205F045C206F046C207F024
:100EDE00FBDC00C043F201C044F202C045F203C085
:100EEE0046F247C24BF248C24CF249C24DF24AC2D8
:100EFE004EF2200E4F6F9B0E506F000E516F040E70
:100F0E00526F000E536FDFDE00C004F001C005F01B
:100F1E0002C006F003C007F043C200F044C201F065
:100F2E0045C202F046C203F0C2DD00C043F201C06A
:100F3E0044F202C045F203C046F20201425319E0E8
:100F4E0043C204F044C205F045C206F046C207F0A3
:100F5E00DB0E006E0F0E016E490E026E7F0E036EDB
:100F6E0099DD00C043F201C044F202C045F203C055
:100F7E0046F2046A056A066A076A3AC200F03BC284
:100F8E0001F03CC202F03DC203F0BEEC03F0010ED4
:100F9E00D8B0000E006E00520DE0000E43193E6FE9
:100FAE00000E44193F6F800E4519406F000E461912
:100FBE00416F08D043C23EF244C23FF245C240F2F6
:100FCE0046C241F23EC243F23FC244F240C245F233
:100FDE0041C246F23EC200F03FC201F040C202F0F2
:060FEE0041C203F01200F5
:100FF4000C6A0E6A0250D8A413EF08F001C002F084
:1010040000C001F0006A0E860250D8A413EF08F065
:1010140001C002F0016A0E960E880250D8B425EF82
:1010240008F00E50035ED8A4D8A02BEF08F0D89097
:1010340002BE31EF08F0003601360236032E1AEFF5
:1010440008F02BEF08F0010E0C6E95EC00F035EF74
:1010540008F0020E0C6E88EC00F035EF08F0040E78
:081064000C6E84EC00F0120098
:10106C000B6A0C6A086A0350D8B4BAEF08F002C0D5
:10107C000AF0028E9E0E035E03AEAAEF08F0036C1C
:10108C00080E035CD8A077EF08F0036E083600C09A
:10109C0008F001C000F002C001F0026A080E035C07
:1010AC00D8A077EF08F0036E083600C008F001C036
:1010BC0000F0016A080E035CD8A077EF08F0036E0D
:1010CC00083600C008F0006A080E035CD8A077EF61
:1010DC0008F0036E0836086A0350D8A4D89083EF42
:1010EC0008F00350D8B483EF08F0D89002320132E4
:1010FC0000320832032E7BEF08F00BBC08A094EFF3
:10110C0008F0D8A094EF08F0082AD8B4002AD8B474
:10111C00012AD8B4022A02BEBEEF08F00AAEBAEF1A
:10112C0008F0021E011E001E081E082AD8B4002A50
:10113C00D8B4012AD8B4022ABAEF08F0026A016ABC
:10114C00006A086ABAEF08F00B800BAEC4EF08F027
:10115C00026A0AAEC4EF08F0026E016E006E086EF1
:10116C000A360232C4EF08F00C6A000EC5EF08F024
:10117C00010E0C6E000E70DDC5EF08F0FF0E025074
:10118C00036E0150026E0050016E0850006E12008A
:10119C0001013C51460A5DE1000E8EB8010E016E54
:1011AC00026A84A650D08E8A040E0C6EA10E0D6EAF
:1011BC000D2EFED70C2EFCD7000000008E9A040ECC
:1011CC000C6EA10E0D6E0D2EFED70C2EFCD7000052
:1011DC00000084A81BD08E7884A617D08E8A040EAB
:1011EC000C6EA10E0D6E0D2EFED70C2EFCD7000032
:1011FC0000008E9A040E0C6EA10E0D6E0D2EFED7F5
:10120C000C2EFCD700000000E7D71CD084A41AD009
:10121C008E7884A617D08E8A040E0C6EA10E0D6EDD
:10122C000D2EFED70C2EFCD7000000008E9A040E5B
:10123C000C6EA10E0D6E0D2EFED70C2EFCD70000E1
:10124C000000E7D7AED701B002D08E9801D08E88BF
:10125C001CD03C51520A19E184AA17D08E8A040E74
:10126C000C6EA10E0D6E0D2EFED70C2EFCD70000B1
:10127C0000008E9A040E0C6EA10E0D6E0D2EFED774
:0C128C000C2EFCD700000000E7D7120079
:1012980001013C51460A5DE1000E8EB8010E016E57
:1012A800026A84A850D08E8A040E0C6EA10E0D6EB0
:1012B8000D2EFED70C2EFCD7000000008E9A040ECF
:1012C8000C6EA10E0D6E0D2EFED70C2EFCD7000055
:1012D800000084AA1BD08E7884A817D08E8A040EAA
:1012E8000C6EA10E0D6E0D2EFED70C2EFCD7000035
:1012F80000008E9A040E0C6EA10E0D6E0D2EFED7F8
:101308000C2EFCD700000000E7D71CD084A61AD00A
:101318008E7884A817D08E8A040E0C6EA10E0D6EDE
:101328000D2EFED70C2EFCD7000000008E9A040E5E
:101338000C6EA10E0D6E0D2EFED70C2EFCD70000E4
:101348000000E7D7AED701B002D08E9801D08E88C2
:101358001CD03C51520A19E184A417D08E8A040E7D
:101368000C6EA10E0D6E0D2EFED70C2EFCD70000B4
:1013780000008E9A040E0C6EA10E0D6E0D2EFED777
:0C1388000C2EFCD700000000E7D712007C
:1013940002013A6B01013C51460A5EE1000E8EB82F
:1013A400010E02013A6F84AA50D08E8A040E0C6E8C
:1013B400A10E0D6E0D2EFED70C2EFCD700000000E2
:1013C4008E9A040E0C6EA10E0D6E0D2EFED70C2EF1
:1013D400FCD70000000084A81BD08E7884AA17D004
:1013E4008E8A040E0C6EA10E0D6E0D2EFED70C2EE1
:1013F400FCD7000000008E9A040E0C6EA10E0D6E38
:101404000D2EFED70C2EFCD700000000E7D71CD011
:1014140084A41AD08E7884AA17D08E8A040E0C6EF7
:10142400A10E0D6E0D2EFED70C2EFCD70000000071
:101434008E9A040E0C6EA10E0D6E0D2EFED70C2E80
:10144400FCD700000000E7D7AED702013AB102D0C2
:101454008E9801D08E881DD001013C51520A19E1A9
:1014640084A617D08E8A040E0C6EA10E0D6E0D2E5E
:10147400FED70C2EFCD7000000008E9A040E0C6ED2
:10148400A10E0D6E0D2EFED70C2EFCD70000000011
:04149400E7D7120084
:1014980001013C51460A5DE1000E8EB8010E016E55
:1014A800026A84A450D08E8A040E0C6EA10E0D6EB2
:1014B8000D2EFED70C2EFCD7000000008E9A040ECD
:1014C8000C6EA10E0D6E0D2EFED70C2EFCD7000053
:1014D800000084AA1BD08E7884A417D08E8A040EAC
:1014E8000C6EA10E0D6E0D2EFED70C2EFCD7000033
:1014F80000008E9A040E0C6EA10E0D6E0D2EFED7F6
:101508000C2EFCD700000000E7D71CD084A61AD008
:101518008E7884A417D08E8A040E0C6EA10E0D6EE0
:101528000D2EFED70C2EFCD7000000008E9A040E5C
:101538000C6EA10E0D6E0D2EFED70C2EFCD70000E2
:101548000000E7D7AED701B002D08E9801D08E88C0
:101558001CD03C51520A19E184A817D08E8A040E77
:101568000C6EA10E0D6E0D2EFED70C2EFCD70000B2
:1015780000008E9A040E0C6EA10E0D6E0D2EFED775
:0C1588000C2EFCD700000000E7D712007A
:0E1594006CB202D00000FCD73AC26DFF12000C
:1015A2000B6A0A6A096A086A0E6A0334083604502A
:1015B200085E0550D8A0053C095E0650D8A0063C3E
:1015C2000A5E0750D8A0073C0B5EE86AD8A0010E5D
:1015D2000E5E0336070E0C6E0334083609360A36E1
:1015E2000B360E36045003A012D0085E0550D8A068
:1015F200053C095E0650D8A0063C0A5E0750D8A0FA
:10160200073C0B5EE86AD8A0010E0E5E11D00826D8
:101612000550D8B0053C09260650D8B0063C0A262B
:101622000750D8B0073C0B26E86AD8B0010E0E2648
:1016320003360C2ED1D70234083609360A360B3659
:101642000E36045003A012D0085E0550D8A0053C07
:10165200095E0650D8A0063C0A5E0750D8A0073C97
:101662000B5EE86AD8A0010E0E5E11D00826055066
:10167200D8B0053C09260650D8B0063C0A260750C9
:10168200D8B0073C0B26E86AD8B0010E0E26023607
:10169200070E0C6E0234083609360A360B360E3641
:1016A200045002A012D0085E0550D8A0053C095E85
:1016B2000650D8A0063C0A5E0750D8A0073C0B5E35
:1016C200E86AD8A0010E0E5E11D008260550D8B0E7
:1016D200053C09260650D8B0063C0A260750D8B069
:1016E200073C0B26E86AD8B0010E0E2602360C2EF5
:1016F200D1D70134083609360A360B360E36045075
:1017020002A012D0085E0550D8A0053C095E065022
:10171200D8A0063C0A5E0750D8A0073C0B5EE86AD8
:10172200D8A0010E0E5E11D008260550D8B0053C97
:1017320009260650D8B0063C0A260750D8B0073C06
:101742000B26E86AD8B0010E0E260136070E0C6E83
:101752000134083609360A360B360E36045001A01B
:1017620012D0085E0550D8A0053C095E0650D8A0EC
:10177200063C0A5E0750D8A0073C0B5EE86AD8A078
:10178200010E0E5E11D008260550D8B0053C092680
:101792000650D8B0063C0A260750D8B0073C0B26A4
:1017A200E86AD8B0010E0E2601360C2ED1D70034CD
:1017B200083609360A360B360E36045001A012D00E
:1017C200085E0550D8A0053C095E0650D8A0063C2C
:1017D2000A5E0750D8A0073C0B5EE86AD8A0010E4B
:1017E2000E5E11D008260550D8B0053C09260650D9
:1017F200D8B0063C0A260750D8B0073C0B26E86A48
:10180200D8B0010E0E260036070E0C6E00340836D4
:1018120009360A360B360E36045000A012D0085E86
:101822000550D8A0053C095E0650D8A0063C0A5EC9
:101832000750D8A0073C0B5EE86AD8A0010E0E5EE6
:1018420011D008260550D8B0053C09260650D8B05C
:10185200063C0A260750D8B0073C0B26E86AD8B0E7
:10186200010E0E2600360C2ED1D700B00ED0045039
:1018720008260550D8B0053C09260650D8B0063CCB
:0C1882000A260750D8B0073C0B261200C5
:10188E000201406B3CC201F0010E006E015004E0FB
:10189E0000360090FF0FFBD700C03FF23AC2E9FFBF
:1018AE003BC2EAFF0050EE14016E0152010ED8A4A5
:1018BE00000E006E3E51001A1AE03D51000806E27D
:1018CE0054EC05F054EC05F03D07F7D73AC2E9FFAA
:1018DE003BC2EAFF3F51EE14016E0152010ED8A435
:1018EE00000E006E3E51001A02E0FF0E406F40C225
:0418FE0000F01200E4
:1019020010D0800E02013A6F1AD0C00E3A6F17D073
:10191200940E3A6F14D0D40E3A6F11D0800E3A6FF3
:101922000ED002013A51010AECE03A51020AEDE00E
:101932003A51030AEDE03A51040AEDE0EFD73B05D4
:10194200006E3A51002600C03AF200C058F229EC6B
:1019520004F06A9102013E6B3E513C25E96E000E95
:101962003D21EA6EEE520DE03E513C25E96E000E3D
:101972003D21EA6EEECF4BF24AEC05F002013E2B1E
:08198200EBD701016A8112009C
:10198A003AC205F03BC206F03AC203F03BC204F089
:10199A0002013A4B3B2B3CC200F03DC201F03EC271
:1019AA0002F0010E3C27000E3D233E2300C0F6FF45
:1019BA0001C0F7FF02C0F8FF0900F5CF00F003C02D
:1019CA00E1FF04C0E2FF00C0E6FF03C0E9FF04C074
:1019DA00EAFFEE5201E0D8D705C000F006C001F0D8
:0219EA001200E9
:1019EC008E9C8E9E0101066B076B800E0719006E94
:1019FC00800E005C02E1AF0E065D0DE28E7E040EE1
:101A0C000C6EE40E0D6E0D2EFED70C2EFCD70000C6
:0C1A1C00064B072BEAD724EC05F0120063
:101A28000050086E0150006E0250016E0350026EA5
:101A3800036A0B6A0C6A9E0E036E0A6A02AE31EFE5
:101A48000DF0081E001E011E021E082AD8B4002A26
:101A5800D8B4012AD8B4022A0A8E020E0C6EB2EC4F
:041A680000F0120078
:101A6C0002013A6B3B6BFEEC04F08E8C8E9E3A6B53
:101A7C003B6B000E3B5D02E1AF0E3A5D0DE28E7EDC
:101A8C00040E0C6EE40E0D6E0D2EFED70C2EFCD734
:0A1A9C0000003A4B3B2BEDD712007F
:101AA6000B6A0C6A0A6A0350D8B49DEF0DF0028ED9
:101AB6008E0E035E03BE65EF0DF0D8B465EF0DF034
:101AC600A1EF0DF0036C080E035CD8A07CEF0DF0BF
:101AD600036E013602C001F0026A080E035CD8A04C
:101AE6007CEF0DF00136016A0350D8A4D89086EF3A
:101AF6000DF00350D8B486EF0DF0D89002320132C3
:101B0600032E80EF0DF00BBC01A093EF0DF0D8A0D3
:101B160093EF0DF0012AD8B4022A02BEB0EF0DF001
:101B26000AAEB6EF0DF0021E011E012AD8B4022A33
:101B3600B6EF0DF0026A016AB6EF0DF00B800BAE40
:101B4600BAEF0DF0026A0AAEBAEF0DF0FF0E026EA2
:101B5600016E0A360232BAEF0DF0010E0C6E32EC4F
:101B660006F0BCEF0DF0000E0C6EBCEF0DF0FF0E94
:0C1B76000C6E0150006E0250016E120057
:101B82000001D851460A02E18E9404D0D851520A7B
:061B9200D8B48E8412009D
:101B98000001D851460AD8B48E90D851520AD8B408
:041BA8008E80120019
:101BAC00810E02013A6F0F0E3B6F010E3C6F010E5E
:101BBC003D6F3E6B66DE0050FF0A02E1006A02D008
:061BCC00010E006E120084
:101BD20010D0800E02012E6F1AD0C00E2E6F17D0B9
:101BE200940E2E6F14D0D40E2E6F11D0800E2E6F45
:101BF2000ED002012E51010AECE02E51020AEDE054
:101C02002E51030AEDE02E51040AEDE0EFD72F0525
:101C1200006E2E51002600C02EF201016A8100C022
:101C220058F229EC04F06A9130C258F229EC04F01F
:041C32006A811200B1
:101C3600956A868686882EC283FF2FC287FF868096
:101C46008690FF0E956E869683CF01F0868601C03C
:041C560000F0120088
:101C5A000201316B2EC2E9FF2FC2EAFFEECF30F24A
:101C6A003051000A0EE030C23AF28FDC0201312B09
:101C7A0031512E25E96E000E2F21EA6EEECF30F299
:041C8A00EFD712007E
:101C8E00810E02013A6F0F0E3B6F050E3C6F010E77
:101C9E003D6F3E6BF5DD0050FF0A02E1006A02D097
:061CAE00010E006E1200A1
:101CB400810E02013A6F0F0E3B6F060E3C6F010E50
:101CC4003D6F3E6BE2DD0050FF0A02E1006A02D084
:061CD400010E006E12007B
:101CDA00810E02013A6F0F0E3B6F070E3C6F010E29
:101CEA003D6F3E6BCFDD0050FF0A02E1006A02D071
:061CFA00010E006E120055
:101D0000810E02013A6F0F0E3B6F040E3C6F010E05
:101D10003D6F3E6BBCDD0050FF0A02E1006A02D05D
:061D2000010E006E12002E
:101D2600780E02013A6F010E3B6FBC0E3C6F9C0EA3
:101D36003D6F000E3E6F26DE00C03CF201C03DF254
:101D4600020E3A6F150E3B6FD9DD780E02013A6F1F
:101D5600010E3B6F180E3C6F9D0E3D6F000E3E6FE1
:101D660011DE00C03CF201C03DF2020E3A6F150EC4
:101D76003B6FC4DD1A0E0B6E5E0E0C6E6E0E0D6E94
:101D86000D2EFED70C2EFCD70B2EFAD70000780EA0
:101D960002013A6F010E3B6FBC0E3C6F9C0E3D6F0D
:101DA600000E3E6FEFDD00C03CF201C03DF2020EB8
:0A1DB6003A6F150E3B6FA2DD12001C
:101DC0000001D851460A02E18E8404D0D851520A4B
:061DD000D8B48E9412004D
:041DD6008E981200D1
:101DDA0002012E51000A13E10001A251530A0FE138
:101DEA00A3514F0A06E1460EA36FED51530A01E1D2
:101DFA0038DE530E0001A26F2EC200F039D0020164
:101E0A002E51010A10E10001A351460A06E14F0EC4
:101E1A00A36FED51530A01E1E4DD4A0E0001A26FFE
:101E2A002EC200F025D002012E51000A09E100015C
:101E3A00A2514A0A05E1530EA26F010E006E18D094
:101E4A0002012E510B0A0DE02E510C0A0AE02E5106
:101E5A000D0A07E02E510E0A04E02E510F0A01E086
:101E6A0007D0BFDD4F0E0001A36F020E006E00D037
:021E7A00120054
:041E7C008E8812003A
:101E800031C200F0016A026A036AFF0E0016000EFA
:101E9000011600C036F201C037F27F0E005C026E00
:101EA000000E0158036E02C036F203C037F2800EF6
:101EB0000318006E800E005C02E1000E025C22E25C
:101EC000046A056A066A076A2EC200F02FC201F092
:101ED00030C202F031C203F0BEEC03F0010ED8B004
:101EE000000E006E005209E0000E006E000E016E42
:101EF000800E026E7F0E036E5DD0006A016A026A78
:101F0000036A58D0000E006E02013751005C02E1F6
:101F10003651180809E22EC200F02FC201F030C27B
:101F200002F031C203F046D02EC200F02FC201F001
:101F300030C202F031C203F036EC08F075DD00C0AB
:101F400032F201C033F202C034F203C035F200C0F5
:101F500004F001C005F002C006F003C007F02EC275
:101F600000F02FC201F030C202F031C203F0BEEC2B
:101F700003F0010ED8B0000E006E005213E0000E08
:101F8000046E000E056E000E066E7F0E076E32C2E6
:101F900000F033C201F034C202F035C203F051EC5C
:101FA00005F008D032C200F033C201F034C202F0B2
:061FB00035C203F012002F
:041FB600B1801200E4
:041FBA00D58E1200AE
:041FBE00CD801200C0
:101FC20034C02EF234C001F00132019E0132019E72
:101FD2000132019E0132019E01C02EF20150010A1E
:101FE20003E1CAEC09F014D002012E51020A03E106
:101FF2004CEC09F00DD002012E51030A03E1CEECA4
:1020020008F006D002012E51040A02E14CEC0AF05B
:022012001200BA
:1020140002012E51000A09E166C15AF167C15BF160
:1020240068C15CF169C15DF117D02E51010A09E163
:1020340056C15AF157C15BF158C15CF159C15DF108
:102044000BD02E51030A08E152C15AF153C15BF17E
:1020540054C15CF155C15DF15AC100F05BC101F09E
:102064005CC102F05DC103F0046A056A066A076A8E
:102074001BEC06F0000ED8A4010E006E0052D8B47A
:1020840030D15AC100F05BC101F05CC102F05DC106
:1020940003F0000E046E000E056E480E066E870EE9
:1020A400076E6BEC04F0000E046E000E056E700EED
:1020B400066E840E076E5EEC05F000C062F101C08E
:1020C40063F102C064F103C065F100C004F001C013
:1020D40005F002C006F003C007F0000E006E000E0B
:1020E400016E000E026E7F0E036E5EEC05F000C002
:1020F4005EF101C05FF102C060F103C061F1000E46
:10210400046E000E056E000E066E800E076E5EEC09
:1021140005F000C04EF101C04FF102C050F103C000
:1021240051F1000E046E240E056E740E066E920EAE
:10213400076E6BEC04F000C04EF101C04FF102C019
:1021440050F103C051F1CD0E046ECC0E056E4C0E51
:10215400066E7B0E076E5EEC05F000C04EF101C00A
:102164004FF102C050F103C051F19BDC00C018F0E4
:1021740001C019F0030E005E000E015A00C018F0F1
:1021840001C019F000500008036E01C004F0000EF5
:10219400045603C018F004C019F003C016F004C0BC
:1021A40017F00F0E0314096E04C00AF0000E0A168D
:1021B40009C043F1040E006E03C001F004C002F034
:1021C400005005E002320132029EFF0FFAD701C02F
:1021D40016F002C017F00F0E0114076E02C008F0CB
:1021E400000E081607C045F101C003F002C004F058
:1021F40004320332049E04320332049E0432033256
:10220400049E04320332049E03C016F004C017F087
:102214000F0E0314056E04C006F0000E061605C06A
:1022240044F103C000F004C001F001320032019E09
:1022340001320032019E01320032019E013200322D
:10224400019E00C016F001C017F00F0E0014036EBB
:1022540001C004F0000E041603C042F1040E006E27
:1022640007C002F0005004E002360290FF0FFBD7D3
:1022740002C045F1040E016E03C000F0015004E0F9
:1022840000360090FF0FFBD700C042F1055000104C
:1022940001013E6F095002103D6F02012E51000AE8
:1022A40009E13DC13FF13EC141F13EC1D7FF3DC10E
:1022B400D6FF17D02E51010A09E13DC140F13EC1BC
:1022C40048F13EC1CFFF3DC1CEFF0BD02E51030AD2
:1022D40008E13DC147F13EC149F13EC1B3FF3DC1F3
:0422E400B2FF120033
:1022E8000201346B356B000E355D02E10A0E345D78
:1022F8000BE234513225E16E35513321E26E200E66
:10230800E66E344B352BEFD734513225E16E35511B
:102318003321E26EE66A010E345F000E355B3451FC
:102328003225366F35513321376F0A0E046E000E91
:10233800056E066E076E2EC200F02FC201F030C285
:1023480002F031C203F0D1EC0AF008C000F009C075
:1023580001F00AC002F00BC003F0300E002636C2AE
:10236800E1FF37C2E2FF00C0E6FF0A0E046E000E6E
:10237800056E066E076E2EC200F02FC201F030C245
:1023880002F031C203F0D1EC0AF000C02EF201C015
:102398002FF202C030F203C031F2000E046E0318AF
:1023A80008E10450021805E10450011802E1005048
:1023B800000A01E105D0010E345F000E355BAFD78E
:0223C800120001
:1023CA000050086E0150006E016A026A036A0B6AC5
:1023DA000C6A960E036E0A6A00C001F008C000F08B
:0A23EA00086A026AFAEC07F012001C
:1023F40032C204F033C205F034C206F035C207F02D
:102404002EC200F02FC201F030C202F031C203F03C
:102414005EEC05F000C036F201C037F202C038F2BB
:1024240003C039F236C23AF237C23BF238C23CF248
:1024340039C23DF2E7EC06F0E10E046E2E0E056E95
:10244400650E066E840E076E6BEC04F000C036F267
:1024540001C037F202C038F203C039F236C200F0CC
:0E24640037C201F038C202F039C203F0120094
:102472000001D851460AD8B48E80D851520AD8B435
:042482008E90120026
:102486000101016B026B000E025D02E1640E015D4B
:1024960019E28E9A040E0C6EA10E0D6E0D2EFED74D
:1024A6000C2EFCD7000000008E8A040E0C6EA10EC6
:1024B6000D6E0D2EFED70C2EFCD700000000014B32
:1024C600022BE1D784BA11D0DB0E02012E6F000E6B
:1024D6002F6F2DEC0EF00A0E3A6FCAEC0AF00D0EB5
:1024E60002013A6FCAEC0AF021D0E30E02012E6F08
:1024F600000E2F6F2DEC0EF0020E3A6F010E3B6FA1
:10250600D90E3C6F000E3D6F81EC0CF00A0E0201F5
:102516003A6FCAEC0AF00D0E02013A6FCAEC0AF0E5
:0E2526005AEC0EF00050010A01E1FAD7120043
:10253400FEC001F0FFC002F001360190023601C076
:10254400FEF002C0FFF00001FC37FC91FD37000EE5
:10255400021802E1000E01180EE1000E0101566F8F
:10256400000E576F700E586F850E596F666B676B50
:10257400686B696BBBD0000E0001FD1902E1000E0F
:10258400FC190EE1000E0101666F000E676F700EFC
:10259400686F850E696F566B576B586B596BA6D075
:1025A4000001FD51FF1902E1FE51FC1912E1000E78
:1025B4000101566F000E576F700E586F850E596FDC
:1025C400000E666F000E676F700E686F850E696F80
:1025D4008DD00001FF51FD5D02E1FE51FC5D40E242
:1025E400000E0101666F000E676F700E686F850E36
:1025F400696FFCC000F0FDC001F0E5DE000E046E62
:10260400000E056E700E066E850E076E6BEC04F000
:1026140000C020F201C021F202C022F203C023F262
:10262400FEC000F0FFC001F0CEDE00C004F001C027
:1026340005F002C006F003C007F020C200F021C27A
:1026440001F022C202F023C203F05EEC05F000C0E8
:1026540056F101C057F102C058F103C059F146D0F8
:102664000001FD51FF5D02E1FC51FE5D3FE2000E01
:102674000101566F000E576F700E586F850E596F1B
:10268400FEC000F0FFC001F09EDE000E046E000EDE
:10269400056E700E066E850E076E6BEC04F000C0BE
:1026A40020F201C021F202C022F203C023F2FCC0D6
:1026B40000F0FDC001F087DE00C004F001C005F0A9
:1026C40002C006F003C007F020C200F021C201F0EE
:1026D40022C202F023C203F05EEC05F000C066F1F2
:1026E40001C067F102C068F103C069F1000E4E1821
:1026F40002E1000E4D180AE0000E0101526F000EB7
:10270400536F2A0E546F870E556F05D00101526B1B
:08271400536B546B556B12006E
:10271C00FEC048F0FFC049F0FCC046F0FDC047F0D9
:10272C004DC000F04EC001F04ADE660E046E660E1F
:10273C00056E660E066E7E0E076E5EEC05F053ECB3
:10274C000DF000C04AF001C04BF00101356B366B47
:10275C003B6B4C6A02012E6B57DC010E2E6F54DC66
:10276C0066C100F067C101F068C102F069C103F0F5
:10277C00046A056A066A076A1BEC06F0000ED8A408
:10278C00010E006E005202E012DC03D0010E0101BA
:10279C00356F56C100F057C101F058C102F059C154
:1027AC0003F0046A056A066A076A1BEC06F0000E61
:1027BC00D8A4010E006E005203E0DFEC0FF003D042
:1027CC000101010E366FE1EC0FF0030E02012E6FCA
:1027DC001BDC52C100F053C101F054C102F055C1D1
:1027EC0003F0046A056A066A076A1BEC06F0000E21
:1027FC00D8A4010E006E005203E0DBEC0FF003D006
:08280C00010E01013B6F1200F7
:102814000101016B026B000E025D02E1640E015DB9
:1028240019E28E9A040E0C6EA10E0D6E0D2EFED7BB
:102834000C2EFCD7000000008E8A040E0C6EA10E34
:102844000D6E0D2EFED70C2EFCD700000000014BA0
:10285400022BE1D784B611D0150E02012E6F010EA2
:102864002F6F2DEC0EF00A0E3A6FCAEC0AF00D0E23
:1028740002013A6FCAEC0AF021D0CD0E02012E6F8C
:10288400000E2F6F2DEC0EF0020E3A6F010E3B6F0F
:10289400380E3C6F000E3D6F81EC0CF00A0E020105
:1028A4003A6FCAEC0AF00D0E02013A6FCAEC0AF054
:0E28B4006DEC0EF00050010A01E1FAD712009F
:1028C200780E02013A6F010E3B6FAA0E3C6F9C0E0E
:1028D2003D6F000E3E6FC5EC0CF000C03CF201C033
:1028E2003DF2020E3A6F150E3B6F81EC0CF0810E39
:1028F20002013A6F0F0E3B6F030E3C6F010E3D6FEC
:102902003E6B47EC0CF00050FF0A04E193EC0EF032
:0A291200006A02D0010E006E1200F0
:10291C0002012051010AD8B4F2882051000AD8B41F
:04292C00F29812000B
:102930000201206B0001D851460AD8A47FD06DC196
:102940002EF26EC12FF2000E0201306F316F1BECC0
:102950000EF00050F80A65E06DC12EF26EC12FF244
:10296000000E306F316F1BEC0EF000C06FF1F00EF7
:102970000014016E01C020F20150800A0AE02051CB
:10298000A00A07E02051C00A04E02051E00A01E05B
:1029900047D02051800A05E1C1EC0DF0CCEC0DF0E0
:1029A00018D002012051A00A05E1E0EC0EF0CCECB9
:1029B0000DF00FD002012051C00A04E1C1EC0DF06E
:1029C00058DD07D002012051E00A03E1E0EC0EF0EF
:1029D00050DD01016D4B6E2B6DC12EF26EC12FF2D9
:1029E000000E0201306F316F1BEC0EF000C0FCF0E6
:1029F000000E0001FD6F01016D4B6E2B6DC12EF2BB
:102A00006EC12FF2000E0201306F316F1BEC0EF021
:102A100000C0FEF0000E0001FF6F01016D4B6E2B38
:102A20000CD06DC12EF26EC12FF2000E0201306F7C
:102A3000316F1BEC0EF000C06FF198D00001D8513F
:102A4000520AD8A493D001016E51020A02E1010E8C
:102A50006D19D8B47FD00001D851520A14E1010E8B
:102A600001016D5F000E6E5B6DC12EF26EC12FF223
:102A7000000E0201306F316F1BEC0EF000C0FEF053
:102A8000000E0001FF6FD851520A14E1010E01013E
:102A90006D5F000E6E5B6DC12EF26EC12FF2000EE7
:102AA0000201306F316F1BEC0EF000C0FCF0000E25
:102AB0000001FD6F010E01016D5F000E6E5B6DC1C7
:102AC0002EF26EC12FF2000E0201306F316F1BEC3F
:102AD0000EF00050F80A3DE06DC12EF26EC12FF2EB
:102AE000000E306F316F1BEC0EF000C06FF1F00E76
:102AF0000014016E01C020F20150800A0AE020514A
:102B0000A00A07E02051C00A04E02051E00A01E0D9
:102B100020D02051800A05E1C1EC0DF0CCEC0DF085
:102B200018D002012051A00A05E1E0EC0EF0CCEC37
:102B30000DF00FD002012051C00A04E1C1EC0DF0EC
:102B400098DC07D002012051E00A03E1E0EC0EF02E
:102B500090DC0CD06DC12EF26EC12FF2000E02017E
:0E2B6000306F316F1BEC0EF000C06FF11200F1
:102B6E0002012051520A28E10001D751520A24E1F4
:102B7E00460ED76F0101016B026B000E025D02E182
:102B8E00C80E015D19E28E8A040E0C6EA10E0D6E3A
:102B9E000D2EFED70C2EFCD7000000008E9A040ED0
:102BAE000C6EA10E0D6E0D2EFED70C2EFCD7000056
:102BBE000000014B022BE1D702012051460A28E109
:102BCE000001D751460A24E1520ED76F0101016B65
:102BDE00026B000E025D02E1C80E015D19E28E8AE3
:102BEE00040E0C6EA10E0D6E0D2EFED70C2EFCD704
:102BFE00000000008E9A040E0C6EA10E0D6E0D2EAE
:102C0E00FED70C2EFCD700000000014B022BE1D7A3
:022C1E001200A2
:102C200080EC0EF00050000A13E1460E0001D86F50
:102C3000460E01013C6F460EC06F820E0C6EDD0E1B
:102C40000D6E0D2EFED70C2EFCD70000000027D0F5
:102C500047EC0EF00050000A13E1520E0001D86F4D
:102C6000520E01013C6F520EC06F820E0C6EDD0ED3
:102C70000D6E0D2EFED70C2EFCD7000000000FD0DD
:102C8000D6EC0DF00050000A09E1460E0001D86FA5
:102C9000460E01013C6F420EC06F01D0C1D7120039
:102CA000780E02013A6F010E3B6F000E3C6F9D0ED5
:102CB0003D6F000E3E6FC5EC0CF000C03CF201C051
:102CC0003DF2020E3A6F240E3B6F81EC0CF01200C5
:102CD0000F0E01016F15086F6F51800A0DE06F51E3
:102CE000810A0AE06F51880A07E06F51890A04E0FF
:102CF0006F518A0A01E042D0000E0001FF1902E183
:102D0000000EFE1909E1000E1E6E000E1F6E340E3D
:102D1000206E850E216E31D0000EFD1902E1000EED
:102D2000FC1905E11E6A1F6A206A216A26D0FCC0D0
:102D300000F0FDC001F0E5EC11F000C02EF201C082
:102D40002FF202C030F203C031F2FEC000F0FFC02B
:102D500001F0E5EC11F000C032F201C033F202C024
:102D600034F203C035F2FAEC11F000C01EF001C0DD
:102D70001FF002C020F003C021F04AD101016F51C1
:102D8000A00A0DE06F51A10A0AE06F51A80A07E0FE
:102D90006F51A90A04E06F51AA0A01E060D0000E49
:102DA0000001FF1902E1000EFE1909E1000E1E6E7E
:102DB000000E1F6E340E206E850E216E4FD0000E59
:102DC000FD1902E1000EFC1909E1000E1E6E000E55
:102DD0001F6E340E206E860E216E40D0FCC000F0B7
:102DE000FDC001F0E5EC11F000C02EF201C02FF2A1
:102DF00002C030F203C031F2FEC000F0FFC001F0AB
:102E0000E5EC11F000C032F201C033F202C034F23E
:102E100003C035F2FAEC11F000C04AF101C04BF1E9
:102E200002C04CF103C04DF100C004F001C005F038
:102E300002C006F003C007F0000E006E000E016E27
:102E4000340E026E860E036E51EC05F000C01EF0CB
:102E500001C01FF002C020F003C021F0D9D0010151
:102E60006F51E00A0DE06F51E10A0AE06F51E80A84
:102E700007E06F51E90A04E06F51EA0A01E058D017
:102E8000000E0001FF1902E1000EFE1909E1000E1B
:102E90001E6E000E1F6E070E206E870E216E47D02D
:102EA000000EFD1902E1000EFC1909E1000E1E6E74
:102EB000000E1F6E340E206E860E216E38D0FCC0C0
:102EC00000F0FDC001F0E5EC11F000C02EF201C0F1
:102ED0002FF202C030F203C031F2FEC000F0FFC09A
:102EE00001F0E5EC11F000C032F201C033F202C093
:102EF00034F203C035F2FAEC11F000C04AF101C01F
:102F00004BF102C04CF103C04DF1000E046E000EF7
:102F1000056E340E066E860E076EAEEC01F000C034
:102F20001EF001C01FF002C020F003C021F070D0DD
:102F300001016F51C00A0DE06F51C10A0AE06F51E3
:102F4000C80A07E06F51C90A04E06F51CA0A01E0DC
:102F50005FD0000E0001FF1902E1000EFE1909E129
:102F6000000E1E6E000E1F6E070E206E870E216E65
:102F70004FD0000EFD1902E1000EFC1909E1000E10
:102F80001E6E000E1F6E340E206E870E216E40D016
:102F9000FCC000F0FDC001F0E5EC11F000C02EF225
:102FA00001C02FF202C030F203C031F2FEC000F0C7
:102FB000FFC001F0E5EC11F000C032F201C033F2C5
:102FC00002C034F203C035F2FAEC11F000C04AF14D
:102FD00001C04BF102C04CF103C04DF100C004F040
:102FE00001C005F002C006F003C007F0000E006E3D
:102FF000000E016E340E026E870E036E51EC05F06A
:1030000000C01EF001C01FF002C020F003C021F07C
:1030100001016F51800A0DE06F51810A0AE06F5182
:10302000880A07E06F51890A04E06F518A0A01E0BB
:1030300003D24651E00A0DE04651E10A0AE046514A
:10304000E80A07E04651E90A04E04651EA0A01E0CD
:10305000C4D06FC146F11EC004F01FC005F020C0EF
:1030600006F021C007F01AC000F01BC001F01CC020
:1030700002F01DC003F051EC05F000C04AF101C0A0
:103080004BF102C04CF103C04DF11EC01AF01FC03D
:103090001BF020C01CF021C01DF000C004F001C0D6
:1030A00005F002C006F003C007F0000E006E000E2F
:1030B000016E340E026E860E036EBEEC03F0000E3F
:1030C000D8B0010E006E005235E01EC004F01FC0E3
:1030D00005F020C006F021C007F0000E006E000EC3
:1030E000016E340E026E850E036E51EC05F000C0C9
:1030F0004AF101C04BF102C04CF103C04DF100C0D8
:103100001EF001C01FF002C020F003C021F000C07B
:103110004AF101C04BF102C04CF103C04DF153EC38
:103120000DF000C04DF001C04EF0220E346E3EECAA
:103130000FF03CD04AC104F04BC105F04CC106F081
:103140004DC107F0000E006E000E016E340E026ECF
:10315000860E036EBEEC03F0010ED8B0000E006EBA
:10316000005224E01EC04AF11FC04BF120C04CF1B8
:1031700021C04DF11EC02EF21FC02FF220C030F230
:1031800021C031F240EC0FF000C04AF101C04BF118
:1031900002C04CF103C04DF153EC0DF000C04DF0F6
:1031A00001C04EF0110E346EEBEC0EF01EC04AF171
:1031B0001FC04BF120C04CF121C04DF11EC000F0EA
:1031C0001FC001F020C002F021C003F053EC0DF04D
:1031D00000C04DF001C04EF02DD101014651C00A92
:1031E0000DE04651C10A0AE04651C80A07E04651BF
:1031F000C90A04E04651CA0A01E027D06FC146F16E
:103200001EC01AF01FC01BF020C01CF021C01DF012
:103210001EC02EF21FC02FF220C030F221C031F2AA
:1032200040EC0FF000C04AF101C04BF102C04CF17C
:1032300003C04DF153EC0DF000C04DF001C04EF055
:10324000110E346EEBEC0EF0F5D001014651A00AE0
:103250000DE04651A10A0AE04651A80A07E046518E
:10326000A90A04E04651AA0A01E03FD06FC146F125
:103270001EC004F01FC005F020C006F021C007F0FA
:10328000000E006E000E016E340E026E850E036E8F
:1032900051EC05F000C04AF101C04BF102C04CF105
:1032A00003C04DF11EC01AF01FC01BF020C01CF05F
:1032B00021C01DF000C01EF001C01FF002C020F0B0
:1032C00003C021F000C04AF101C04BF102C04CF133
:1032D00003C04DF153EC0DF000C04DF001C04EF0B5
:1032E000220E346E3EEC0FF0A5D04651800A0DE060
:1032F0004651810A0AE04651880A07E04651890A88
:1033000004E046518A0A01E095D06FC146F11EC023
:1033100004F01FC005F020C006F021C007F01AC05D
:1033200000F01BC001F01CC002F01DC003F0BEEC99
:1033300003F0000ED8B0010E006E005227E01EC050
:1033400004F01FC005F020C006F021C007F01AC02D
:1033500000F01BC001F01CC002F01DC003F051ECD6
:1033600005F000C04AF101C04BF102C04CF103C0AE
:103370004DF11EC01AF01FC01BF020C01CF021C070
:103380001DF0020E346E3EEC0FF03ED01EC004F075
:103390001FC005F020C006F021C007F01AC000F0E1
:1033A0001BC001F01CC002F01DC003F0BEEC03F016
:1033B000010ED8B0000E006E005226E01AC004F0D4
:1033C0001BC005F01CC006F01DC007F01EC000F0B9
:1033D0001FC001F020C002F021C003F051EC05F045
:1033E00000C04AF101C04BF102C04CF103C04DF1E5
:1033F0001EC01AF01FC01BF020C01CF021C01DF021
:10340000010E346EEBEC0EF04AC11EF04BC11FF002
:103410004CC120F04DC121F04AC100F04BC101F078
:103420004CC102F04DC103F053EC0DF000C04DF063
:1034300001C04EF010EF20F001016F51A00A0DE025
:103440006F51A10A0AE06F51A80A07E06F51A90A5B
:1034500004E06F51AA0A01E0ECD14651E00A0DE008
:103460004651E10A0AE04651E80A07E04651E90AF6
:1034700004E04651EA0A01E03FD06FC146F11EC0A8
:1034800004F01FC005F020C006F021C007F0000EB8
:10349000006E000E016E340E026E860E036E51EC4D
:1034A00005F000C04AF101C04BF102C04CF103C06D
:1034B0004DF11EC01AF01FC01BF020C01CF021C02F
:1034C0001DF000C01EF001C01FF002C020F003C0BC
:1034D00021F000C04AF101C04BF102C04CF103C021
:1034E0004DF153EC0DF000C04DF001C04EF0320E26
:1034F000346E3EEC0FF09CD14651C00A0DE04651AF
:10350000C10A0AE04651C80A07E04651C90A04E068
:103510004651CA0A01E0A8D06FC146F11EC004F0AE
:103520001FC005F020C006F021C007F01AC000F04F
:103530001BC001F01CC002F01DC003F051EC05F0EF
:1035400000C04AF101C04BF102C04CF103C04DF183
:103550001EC01AF01FC01BF020C01CF021C01DF0BF
:1035600000C004F001C005F002C006F003C007F07F
:10357000000E006E000E016E340E026E860E036E9B
:10358000BEEC03F0000ED8B0010E006E00521FE03A
:103590001EC004F01FC005F020C006F021C007F0D7
:1035A000000E006E000E016E340E026E860E036E6B
:1035B00051EC05F000C01EF001C01FF002C020F069
:1035C00003C021F0320E346E3EEC0FF036D04AC10B
:1035D00004F04BC105F04CC106F04DC107F0000EE0
:1035E000006E000E016E340E026E860E036EBEEC8F
:1035F00003F0010ED8B0000E006E00521EE0000E67
:10360000046E000E056E340E066E850E076E1EC02B
:1036100000F01FC001F020C002F021C003F051EC07
:1036200005F000C01EF001C01FF002C020F003C072
:1036300021F0210E346EEBEC0EF01EC04AF11FC0DB
:103640004BF120C04CF121C04DF11EC000F01FC055
:1036500001F020C002F021C003F053EC0DF000C0D7
:103660004DF001C04EF0E4D04651A00A0DE04651A5
:10367000A10A0AE04651A80A07E04651A90A04E057
:103680004651AA0A01E08ED06FC146F11EC004F077
:103690001FC005F020C006F021C007F01AC000F0DE
:1036A0001BC001F01CC002F01DC003F0BEEC03F013
:1036B000000ED8B0010E006E00521FE01EC004F0D4
:1036C0001FC005F020C006F021C007F01AC000F0AE
:1036D0001BC001F01CC002F01DC003F051EC05F04E
:1036E00000C04AF101C04BF102C04CF103C04DF1E2
:1036F000020E346E3EEC0FF036D01EC004F01FC038
:1037000005F020C006F021C007F01AC000F01BC071
:1037100001F01CC002F01DC003F0BEEC03F0010E6E
:10372000D8B0000E006E00521EE01AC004F01BC09C
:1037300005F01CC006F01DC007F01EC000F01FC041
:1037400001F020C002F021C003F051EC05F000C0F0
:103750004AF101C04BF102C04CF103C04DF1010E22
:10376000346EEBEC0EF01EC01AF01FC01BF020C030
:103770001CF021C01DF04AC11EF04BC11FF04CC10E
:1037800020F04DC121F04AC100F04BC101F04CC105
:1037900002F04DC103F053EC0DF000C04DF001C03C
:1037A0004EF046D04651800A0DE04651810A0AE0AB
:1037B0004651880A07E04651890A04E046518A0AC0
:1037C00001E036D06FC146F11EC01AF01FC01BF0D9
:1037D00020C01CF021C01DF0000E046E000E056E0E
:1037E000340E066E850E076E1EC000F01FC001F07D
:1037F00020C002F021C003F051EC05F000C01EF023
:1038000001C01FF002C020F003C021F000C04AF147
:1038100001C04BF102C04CF103C04DF153EC0DF06F
:1038200000C04DF001C04EF0210E346EEBEC0EF0F6
:10383000F7D36F51E00A0DE06F51E10A0AE06F51D2
:10384000E80A07E06F51E90A04E06F51EA0A01E073
:10385000E4D14651C00A0DE04651C10A0AE0465182
:10386000C80A07E04651C90A04E04651CA0A01E005
:1038700037D06FC146F11EC01AF01FC01BF020C028
:103880001CF021C01DF01EC004F01FC005F020C0B8
:1038900006F021C007F0000E006E000E016E070E4C
:1038A000026E870E036E51EC05F000C01EF001C0E1
:1038B0001FF002C020F003C021F000C04AF101C097
:1038C0004BF102C04CF103C04DF153EC0DF000C0C0
:1038D0004DF001C04EF0420E346E3EEC0FF09CD124
:1038E0004651800A0DE04651810A0AE04651880A95
:1038F00007E04651890A04E046518A0A01E0A8D04F
:103900006FC146F11AC004F01BC005F01CC006F0E0
:103910001DC007F01EC000F01FC001F020C002F063
:1039200021C003F051EC05F000C04AF101C04BF199
:1039300002C04CF103C04DF11EC01AF01FC01BF0B5
:1039400020C01CF021C01DF000C004F001C005F033
:1039500002C006F003C007F0000E006E000E016EFC
:10396000340E026E860E036EBEEC03F0000ED8B06D
:10397000010E006E00521FE0000E046E000E056E78
:10398000340E066E860E076E1EC000F01FC001F0DA
:1039900020C002F021C003F051EC05F000C01EF081
:1039A00001C01FF002C020F003C021F0310E346EC0
:1039B000EBEC0EF036D04AC104F04BC105F04CC11F
:1039C00006F04DC107F0000E006E000E016E340EC1
:1039D000026E860E036EBEEC03F0010ED8B0000E30
:1039E000006E00521EE01EC004F01FC005F020C093
:1039F00006F021C007F0000E006E000E016E070EEB
:103A0000026E870E036E51EC05F000C01EF001C07F
:103A10001FF002C020F003C021F0420E346E3EECD5
:103A20000FF01EC04AF11FC04BF120C04CF121C065
:103A30004DF11EC000F01FC001F020C002F021C0F7
:103A400003F053EC0DF000C04DF001C04EF0E4D097
:103A50004651E00A0DE04651E10A0AE04651E80A03
:103A600007E04651E90A04E04651EA0A01E08ED037
:103A70006FC146F11EC004F01FC005F020C006F063
:103A800021C007F01AC000F01BC001F01CC002F0FA
:103A90001DC003F0BEEC03F0000ED8B0010E006EA6
:103AA00000521FE01EC004F01FC005F020C006F049
:103AB00021C007F01AC000F01BC001F01CC002F0CA
:103AC0001DC003F051EC05F000C04AF101C04BF1FC
:103AD00002C04CF103C04DF1020E346E3EEC0FF00B
:103AE00036D01EC004F01FC005F020C006F021C073
:103AF00007F01AC000F01BC001F01CC002F01DC08E
:103B000003F0BEEC03F0010ED8B0000E006E0052C0
:103B10001EE01AC004F01BC005F01CC006F01DC05A
:103B200007F01EC000F01FC001F020C002F021C04D
:103B300003F051EC05F000C04AF101C04BF102C0A6
:103B40004CF103C04DF1010E346EEBEC0EF01EC0D3
:103B50001AF01FC01BF020C01CF021C01DF04AC18C
:103B60001EF04BC11FF04CC120F04DC121F04AC1E5
:103B700000F04BC101F04CC102F04DC103F053EC19
:103B80000DF000C04DF001C04EF046D04651A00AE5
:103B90000DE04651A10A0AE04651A80A07E0465145
:103BA000A90A04E04651AA0A01E036D06FC146F1E5
:103BB0001EC01AF01FC01BF020C01CF021C01DF059
:103BC000000E046E000E056E340E066E860E076E35
:103BD0001EC000F01FC001F020C002F021C003F0A1
:103BE00051EC05F000C01EF001C01FF002C020F033
:103BF00003C021F000C04AF101C04BF102C04CF1FA
:103C000003C04DF153EC0DF000C04DF001C04EF07B
:103C1000310E346EEBEC0EF003D26F51C00A0DE0A2
:103C20006F51C10A0AE06F51C80A07E06F51C90A13
:103C300004E06F51CA0A01E0F3D14651800A0DE059
:103C40004651810A0AE04651880A07E04651890A2E
:103C500004E046518A0A01E037D06FC146F11EC028
:103C60001AF01FC01BF020C01CF021C01DF01EC0A8
:103C700004F01FC005F020C006F021C007F0000EC0
:103C8000006E000E016E340E026E870E036E51EC54
:103C900005F000C01EF001C01FF002C020F003C0FC
:103CA00021F000C04AF101C04BF102C04CF103C049
:103CB0004DF153EC0DF000C04DF001C04EF0120E6E
:103CC000346E3EEC0FF0ACD14651A00A0DE04651E7
:103CD000A10A0AE04651A80A07E04651A90A04E0F1
:103CE0004651AA0A01E0A8D06FC146F11AC004F0FB
:103CF0001BC005F01CC006F01DC007F01EC000F080
:103D00001FC001F020C002F021C003F051EC05F00B
:103D100000C04AF101C04BF102C04CF103C04DF1AB
:103D20001EC01AF01FC01BF020C01CF021C01DF0E7
:103D300000C004F001C005F002C006F003C007F0A7
:103D4000000E006E000E016E340E026E860E036EC3
:103D5000BEEC03F0000ED8B0010E006E00521FE062
:103D6000000E046E000E056E070E066E870E076EBF
:103D70001EC000F01FC001F020C002F021C003F0FF
:103D800051EC05F000C01EF001C01FF002C020F091
:103D900003C021F0410E346EEBEC0EF036D04AC178
:103DA00004F04BC105F04CC106F04DC107F0000E08
:103DB000006E000E016E340E026E860E036EBEECB7
:103DC00003F0010ED8B0000E006E00521EE01EC0BF
:103DD00004F01FC005F020C006F021C007F0000E5F
:103DE000006E000E016E340E026E870E036E51ECF3
:103DF00005F000C01EF001C01FF002C020F003C09B
:103E000021F0120E346E3EEC0FF01EC04AF11FC0BE
:103E10004BF120C04CF121C04DF11EC000F01FC07D
:103E200001F020C002F021C003F053EC0DF000C0FF
:103E30004DF001C04EF0F4D04651C00A0DE046519D
:103E4000C10A0AE04651C80A07E04651C90A04E01F
:103E50004651CA0A01E096D06FC146F11EC004F077
:103E60001FC005F020C006F021C007F01AC000F006
:103E70001BC001F01CC002F01DC003F0BEEC03F03B
:103E8000000ED8B0010E006E005227E01EC004F0F4
:103E90001FC005F020C006F021C007F01AC000F0D6
:103EA0001BC001F01CC002F01DC003F051EC05F076
:103EB00000C04AF101C04BF102C04CF103C04DF10A
:103EC0001EC01AF01FC01BF020C01CF021C01DF046
:103ED000020E346E3EEC0FF03ED01EC004F01FC048
:103EE00005F020C006F021C007F01AC000F01BC08A
:103EF00001F01CC002F01DC003F0BEEC03F0010E87
:103F0000D8B0000E006E005226E01AC004F01BC0AC
:103F100005F01CC006F01DC007F01EC000F01FC059
:103F200001F020C002F021C003F051EC05F000C008
:103F30004AF101C04BF102C04CF103C04DF11EC06B
:103F40001AF01FC01BF020C01CF021C01DF0010E94
:103F5000346EEBEC0EF04AC11EF04BC11FF04CC1A9
:103F600020F04DC121F04AC100F04BC101F04CC11D
:103F700002F04DC103F053EC0DF000C04DF001C054
:103F80004EF04ED04651E00A0DE04651E10A0AE0FB
:103F90004651E80A07E04651E90A04E04651EA0AB8
:103FA00001E03ED06FC146F1000E046E000E056EBA
:103FB000070E066E870E076E1EC000F01FC001F0D0
:103FC00020C002F021C003F051EC05F000C04AF11E
:103FD00001C04BF102C04CF103C04DF11EC01AF0FC
:103FE0001FC01BF020C01CF021C01DF000C01EF03F
:103FF00001C01FF002C020F003C021F000C04AF150
:1040000001C04BF102C04CF103C04DF153EC0DF077
:1040100000C04DF001C04EF0410E346EEBEC0EF0DE
:0E40200008C12EF2EDEC0EF000C008F1120007
:10402E000134083609360450085E0550D8A0053C08
:10403E00095E003601360F0E0C6E01340836093655
:10404E00045000A006D0085E0550D8A0053C095EBD
:10405E0005D008260550D8B0053C09260036013695
:10406E000C2EEBD700B006D0045008260550D8B061
:08407E00053C092600001200B8
:10408600086A096A100E0C6E0134083609360450A7
:10409600085E0550D8A0053C095ED8B007D004508C
:1040A60008260550D8B0053C0926D89000360136BA
:0640B6000C2EEAD71200F7
:1040BC00940E0101BC6F150EBD6F3A0EBE6F020E51
:1040CC00BF6FB00EB86F450EB96F000EBA6F000E11
:1040DC00BB6F860E746F530E756F000E766F000EED
:1040EC00776FFF0E706FFF0E716F000E726F000E08
:1040FC00736F6C8A900E6B6E98849892A4AA03D0FE
:08410C006ECF00F0FBD712009A
:104114000201286B296B20C22AF221C22BF222C28F
:104124002CF223C22DF2800E2319006E800E005C47
:1041340008E1000E225D05E1000E215D02E1000EA2
:10414400205D10E2010E286F000E296F2A6B2B6B85
:104154002C6B2D6B20512A5F21512B5B22512C5B40
:1041640023512D5B2AC22EF22BC22FF22CC230F225
:104174002DC231F224C232F225C233F274EC11F0B2
:104184000B0E266F000E276F000E006E2751005C89
:1041940002E12651000819E226512425E16E275137
:1041A4002521E26E010E265D006E000E2759016E78
:1041B40000502425E96E01502521EA6EEECFE6FF7A
:1041C400010E265F000E275BDFD724C2E1FF25C264
:1041D400E2FF200EE66E285129111AE0266B276BA8
:1041E40026512425E96E27512521EA6EEE50200A36
:1041F40003E1264B272BF4D7010E265F000E275B25
:1042040026512425E16E27512521E26E2D0EE66EFE
:02421400120096
:10421600400E0201586F29EC04F00201226B225174
:10422600070813E3C50E2225F66E9C0EF76E000EE8
:10423600F722000EF86E000EF8220900F5CF4BF2B9
:104246004AEC05F00201222BEAD7020E586F29EC40
:1042560004F020C22EF221C22FF20201306BE9ECEB
:044266000DF0120045
:10426A00086A080E0C6E003408360450085ED8B08E
:0E427A0002D00826D89000360C2EF5D7120080
:104288000101016B026B000E025D02E1640E015D2B
:1042980019E28E9A040E0C6EA10E0D6E0D2EFED72D
:1042A8000C2EFCD7000000008E8A040E0C6EA10EA6
:1042B8000D6E0D2EFED70C2EFCD700000000014B12
:1042C800022BE1D784B811D0220E02012E6F000E06
:1042D8002F6F2DEC0EF00A0E3A6FCAEC0AF00D0E95
:1042E80002013A6FCAEC0AF021D02A0E02012E6FA1
:1042F800000E2F6F2DEC0EF0020E3A6F010E3B6F81
:10430800350E3C6F000E3D6F81EC0CF00A0E020179
:104318003A6FCAEC0AF00D0E02013A6FCAEC0AF0C5
:0E43280080EC0EF00050010A01E1FAD71200FD
:104336000101016B026B000E025D02E1640E015D7C
:1043460019E28E9A040E0C6EA10E0D6E0D2EFED77E
:104356000C2EFCD7000000008E8A040E0C6EA10EF7
:104366000D6E0D2EFED70C2EFCD700000000014B63
:10437600022BE1D784B411D02D0E02012E6F010E4F
:104386002F6F2DEC0EF00A0E3A6FCAEC0AF00D0EE6
:1043960002013A6FCAEC0AF021D01D0E02012E6FFF
:1043A600010E2F6F2DEC0EF0020E3A6F010E3B6FD1
:1043B600270E3C6F010E3D6F81EC0CF00A0E0201D8
:1043C6003A6FCAEC0AF00D0E02013A6FCAEC0AF017
:0E43D60047EC0EF00050010A01E1FAD7120088
:1043E4000D6A086A0050D8B4000C04180A6E0ABE9C
:1043F4000D1E0B6A04AE02D0041E042A00AE02D0C5
:10440400001E002A005004100A6E0ABE1FD0045079
:10441400085E003600340836045008260036060EBE
:104424000C6E00340836045000B0085E00A0082664
:1044340000360C2EF6D700A008260BB015D00DAE12
:10444400000C001E002A081E082A000C04AE09D025
:1044540000BE04D00050086E006AF1D7006A002A3A
:10446400000C001E0B2AD3D7082A0450085CD8A4D9
:0E447400E6D7086A002A00AEE2D7FF0C12005D
:104482000B6A0A6A096A00500402F4CF09F0F3CFFA
:1044920008F001500502F4CF0BF0F3CF0AF0005000
:1044A2000502F3500926F4500A22E86A0B22015051
:1044B2000402F3500926F4500A22E86A0B2208C0CB
:1044C20000F009C001F00AC002F00BC003F01200B4
:1044D2000450000A08E10550000A05E1FF0E006ED3
:1044E2007F0E016E57D00D6A096A086A01500010EA
:1044F200D8B4000C015005180A6E0ABE0D1E0B6AD4
:1045020005AE05D0041E051E042AD8B4052A01AE44
:1045120005D0001E011E002AD8B4012A0150051040
:104522000A6E0ABE10D082DD0BB020D00DAE000C98
:10453200001E011E002AD8B4012A081E091E082ADC
:10454200D8B4092A000C05AE0DD001BE07D0015027
:10455200096E0050086E016A006AE8D7016A006AB3
:10456200002A000C011E001E0B2ADDD7082AD8B42F
:10457200092A0450085CD8A4D9D70550095CD8A4EC
:10458200D5D7096A086A002AD8B4012A01AECED763
:064592000000FF0C120006
:1045980002011951390806E3300E195D03E3010ED3
:0845A800006E01D0006A120050
:1045B0006ECF01F06BA202D06B986B8801C000F047
:0245C0001200E7
:1045C2006E0E0201195DD8A0C6D0640E046E19C227
:1045D20000F04ADE120E0024056E066A000E062264
:1045E20005C000F006C001F0000E06BEFF0E026E0E
:1045F200036E003600900136023603360036009014
:10460200013602360336280E0024F66E9A0E012079
:10461200F76E000E0220F86E0900F5CF00F00900D7
:10462200F5CF01F00900F5CF02F00900F5CF03F054
:10463200000E046E000E056E000E066E7E0E076EF4
:104642006BEC04F000C01AF201C01BF202C01CF2B3
:1046520003C01DF2640E046E19C200F005DE08C02C
:1046620000F00A0E046E00DE090E0024056E066AD2
:10467200000E062205C000F006C001F0000E06BEC4
:10468200FF0E026E036E00360090013602360336CC
:1046920000360090013602360336280E0024F66EEC
:1046A2009A0E0120F76E000E0220F86E0900F5CF77
:1046B20000F00900F5CF01F00900F5CF02F0090082
:1046C200F5CF03F01AC204F01BC205F01CC206F0BB
:1046D2001DC207F06BEC04F000C01AF201C01BF21D
:1046E20002C01CF203C01DF20A0E046E19C200F0D1
:1046F200BBDD08C000F000C001F0000E026E036EC8
:10470200046E0136019002360336043601360190FA
:10471200023603360436280E0124F66E9A0E022063
:10472200F76E000E0320F86E0900F5CF00F00900C5
:10473200F5CF01F00900F5CF02F00900F5CF03F043
:104742001AC204F01BC205F01CC206F01DC207F01B
:104752006BEC04F0AFD019510A08D8B07CD00A0E25
:10476200046E19C200F080DD090E0024056E066A8F
:10477200000E062205C000F006C001F0000E06BEC3
:10478200FF0E026E036E00360090013602360336CB
:1047920000360090013602360336280E0024F66EEB
:1047A2009A0E0120F76E000E0220F86E0900F5CF76
:1047B20000F00900F5CF01F00900F5CF02F0090081
:1047C200F5CF03F0000E046E000E056E000E066EAD
:1047D2007E0E076E6BEC04F000C01AF201C01BF2F1
:1047E20002C01CF203C01DF20A0E046E19C200F0D0
:1047F2003BDD08C000F000C001F0000E026E036E47
:10480200046E0136019002360336043601360190F9
:10481200023603360436280E0124F66E9A0E022062
:10482200F76E000E0320F86E0900F5CF00F00900C4
:10483200F5CF01F00900F5CF02F00900F5CF03F042
:104842001AC204F01BC205F01CC206F01DC207F01A
:104852006BEC04F02FD019C200F0000E016E026E54
:10486200036E0036009001360236033600360090A1
:10487200013602360336280E0024F66E9A0E012007
:10488200F76E000E0220F86E0900F5CF00F0090065
:10489200F5CF01F00900F5CF02F00900F5CF03F0E2
:1048A200000E046E000E056E000E066E7E0E076E82
:0648B2006BEC04F01200A3
:1048B8000B6A0C6A0A6A086A0350D8B4E4EF24F059
:1048C800028E9E0E035E03BE6FEF24F0D8B46FEF26
:1048D80024F0D4EF24F0036C080E035CD8A0A1EFF9
:1048E80024F0036E083600C008F001C000F002C0D2
:1048F80001F0026A080E035CD8A0A1EF24F0036E51
:10490800083600C008F001C000F0016A080E035C18
:10491800D8A0A1EF24F0036E083600C008F0006AA2
:10492800080E035CD8A0A1EF24F0036E0836086ACD
:104938000350D8A4D890ADEF24F00350D8B4ADEF0D
:1049480024F0D8900232013200320832032EA5EF4B
:1049580024F00BBC08A0BEEF24F0D8A0BEEF24F0D2
:10496800082AD8B4002AD8B4012AD8B4022A02BE28
:10497800E8EF24F00AAEE4EF24F0021E011E001E48
:10498800081E082AD8B4002AD8B4012AD8B4022AA2
:10499800E4EF24F0026A016A006A086AE4EF24F08E
:1049A8000B800BAEEEEF24F0026A0AAEEEEF24F0B5
:1049B800026E016E006E086E0A360232EEEF24F0C7
:1049C800000E0C6AEFEF24F0010E0C6E32EC06F0CC
:1049D800EFEF24F0FF0E0250036E0150026E0050FC
:0849E800016E0850006E120080
:1049F0000050086E0150006E0250016E0350026EAE
:104A0000036A0B6A0C6A9E0E036E0A6A020E0C6E33
:064A1000B2EC00F0120000
:104A1600800E02011919006E800E000A005CD8B0E3
:104A260068D119510008016E01C019F2800E0118F3
:104A3600006E800E6E0A005CD8A0BCD0640E046EB8
:104A460019C200F0CCDC120E0024056E000E00BE6A
:104A5600FF0E066E000E062205C000F006C001F02D
:104A6600000E06BEFF0E026E036E00360090013683
:104A76000236033600360090013602360336280E1B
:104A86000024F66E9A0E0120F76E000E0220F86ED4
:104A96000900F5CF1AF20900F5CF1BF20900F5CF90
:104AA6001CF20900F5CF1DF2640E046E19C200F067
:104AB60096DC08C000F00A0E046E91DC090E002494
:104AC600056E000E00BEFF0E066E000E062205C025
:104AD60000F006C001F0000E06BEFF0E026E036E69
:104AE6000036009001360236033600360090013655
:104AF60002360336280E0024F66E9A0E0120F76E53
:104B0600000E0220F86E0900F5CF00F00900F5CF7F
:104B160001F00900F5CF02F00900F5CF03F01AC243
:104B260004F01BC205F01CC206F01DC207F06BECB8
:104B360004F000C01AF201C01BF202C01CF203C04E
:104B46001DF20A0E046E19C200F049DC08C000F01E
:104B560000C001F0000E00BEFF0E026E036E046E72
:104B660001360190023603360436013601900236CC
:104B760003360436280E0124F66E9A0E0220F76ECE
:104B8600000E0320F86E0900F5CF00F00900F5CFFE
:104B960001F00900F5CF02F00900F5CF03F01AC2C3
:104BA60004F01BC205F01CC206F01DC207F06BEC38
:104BB60004F006D2800E0A0A006E800E1919005CF7
:104BC60070E20A0E046E19C200F009DC090E002418
:104BD600056E000E00BEFF0E066E000E062205C014
:104BE60000F006C001F0000E06BEFF0E026E036E58
:104BF6000036009001360236033600360090013644
:104C060002360336280E0024F66E9A0E0120F76E41
:104C1600000E0220F86E0900F5CF1AF20900F5CF52
:104C26001BF20900F5CF1CF20900F5CF1DF20A0EA2
:104C3600046E19C200F0F2EC21F008C000F000C0CA
:104C460001F0000E00BEFF0E026E036E046E01360A
:104C560001900236033604360136019002360336D9
:104C66000436280E0124F66E9A0E0220F76E000E08
:104C76000320F86E0900F5CF00F00900F5CF01F02A
:104C86000900F5CF02F00900F5CF03F01AC204F0CF
:104C96001BC205F01CC206F01DC207F06BEC04F047
:104CA6008FD119C200F0000E19BFFF0E016E026E01
:104CB600036E003600900136023603360036009049
:104CC600013602360336280E0024F66E9A0E0120AF
:104CD600F76E000E0220F86E0900F5CF00F009000D
:104CE600F5CF01F00900F5CF02F00900F5CF03F08A
:104CF60067D1800E1919006E800E6E0A005CD8A06E
:104D0600C0D0640E046E19C200F0F2EC21F0120E4F
:104D16000024056E000E00BEFF0E066E000E062273
:104D260005C000F006C001F0000E06BEFF0E026EC2
:104D3600036E0036009001360236033600360090C8
:104D46000136023603365C0E0024F66E9A0E0120FA
:104D5600F76E000E0220F86E0900F5CF1AF2090070
:104D6600F5CF1BF20900F5CF1CF20900F5CF1DF2B5
:104D7600640E046E19C200F0F2EC21F008C000F0D7
:104D86000A0E046EF2EC21F0090E0024056E000EE8
:104D960000BEFF0E066E000E062205C000F006C01D
:104DA60001F0000E06BEFF0E026E036E0036009086
:104DB60001360236033600360090013602360336D7
:104DC6005C0E0024F66E9A0E0120F76E000E02208D
:104DD600F86E0900F5CF00F00900F5CF01F00900E3
:104DE600F5CF02F00900F5CF03F01AC204F01BC29A
:104DF60005F01CC206F01DC207F06BEC04F000C003
:104E06001AF201C01BF202C01CF203C01DF20A0E08
:104E1600046E19C200F0F2EC21F008C000F000C0E8
:104E260001F0000E00BEFF0E026E036E046E013628
:104E360001900236033604360136019002360336F7
:104E460004365C0E0124F66E9A0E0220F76E000EF2
:104E56000320F86E0900F5CF00F00900F5CF01F048
:104E66000900F5CF02F00900F5CF03F01AC204F0ED
:104E76001BC205F01CC206F01DC207F06BEC04F065
:104E86009FD0800E0A0A006E800E1919005C71E22E
:104E96000A0E046E19C200F0F2EC21F0090E00248D
:104EA600056E000E00BEFF0E066E000E062205C041
:104EB60000F006C001F0000E06BEFF0E026E036E85
:104EC6000036009001360236033600360090013671
:104ED600023603365C0E0024F66E9A0E0120F76E3B
:104EE600000E0220F86E0900F5CF1AF20900F5CF80
:104EF6001BF20900F5CF1CF20900F5CF1DF20A0ED0
:104F0600046E19C200F0F2EC21F008C000F000C0F7
:104F160001F0000E00BEFF0E026E036E046E013637
:104F26000190023603360436013601900236033606
:104F360004365C0E0124F66E9A0E0220F76E000E01
:104F46000320F86E0900F5CF00F00900F5CF01F057
:104F56000900F5CF02F00900F5CF03F01AC204F0FC
:104F66001BC205F01CC206F01DC207F06BEC04F074
:104F760027D019C200F0000E19BFFF0E016E026E97
:104F8600036E003600900136023603360036009076
:104F96000136023603365C0E0024F66E9A0E0120A8
:104FA600F76E000E0220F86E0900F5CF00F009003A
:104FB600F5CF01F00900F5CF02F00900F5CF03F0B7
:024FC6001200D7
:0C4FC800010E0201586F29EC04F01200E9
:104FD400400E6F6E6C945EEC20F00A0E02013A6F84
:104FE400CAEC0AF00D0E02013A6FCAEC0AF0EBECBF
:104FF4000EF08D801A0E0B6E5E0E0C6E6E0E0D6E24
:105004000D2EFED70C2EFCD70B2EFAD700008E9A4D
:10501400040E0C6EA10E0D6E0D2EFED70C2EFCD7B9
:10502400000000008E8A040E0C6EA10E0D6E0D2E73
:10503400FED70C2EFCD70000000084BA11D03A0E23
:1050440002012E6F000E2F6F2DEC0EF00A0E3A6F38
:10505400CAEC0AF00D0E02013A6FCAEC0AF001D054
:10506400D6D744EC21F00AEC14F09BEC21F043EC8D
:1050740012F044EC21F00AEC14F09BEC21F0020E47
:1050840002013A6F010E3B6F440E3C6F000E3D6F00
:1050940081EC0CF03EEC0FF00AEC14F044EC21F03F
:1050A40043EC12F09BEC21F0020E02013A6F010E68
:1050B4003B6F420E3C6F000E3D6F81EC0CF0376A83
:1050C400030E375C18E28E8A040E0C6EA10E0D6E70
:1050D4000D2EFED70C2EFCD7000000008E9A040E75
:1050E4000C6EA10E0D6E0D2EFED70C2EFCD70000FB
:1050F4000000372AE5D761EC14F00050010A01E101
:04510400FAD71200C4
:10510800880E02013A6F0F0E3B6F3C6B010E3D6F2C
:105118003E6B47EC0CF00050FF0A02E1006A02D037
:06512800010E006E1200F2
:10512E0010EC16F0C0C100F1D8C020F2B7EC15F0AB
:10513E0098EC14F001016F51F80A5FE068EC16F07C
:10514E0000C004F19AEC12F0010E0201206F8EECF9
:10515E0014F08EEC13F037C120F238C121F239C1B0
:10516E0022F23AC123F2C10E0201246F010E256F05
:10517E008AEC20F0010E3A6F010E3B6FC10E3C6FB0
:10518E00010E3D6F81EC0CF00001D851460A08E18A
:10519E00010E01013727000E382339233A230BD095
:1051AE000001D851520A07E1010E0101375F000ECE
:1051BE00385B395B3A5B0101800E006E800E3A1946
:1051CE00005C08E13951000805E13851000802E1A0
:1051DE003751000802E3F80E6F6F3551000A01E1F6
:1051EE00FCD73651000A01E1FCD73B51000A01E120
:1051FE00FCD70201206B8EEC14F001010051420A23
:10520E0003E104C1CDF103D06F51F80A89E1120018
:10521E000201196B1A6B1B6B50EC16F0000E8EB858
:10522E00010E0201196FEBEC0EF084AC1BD084ACB6
:10523E0019D01A4B1B2B8E8A040E0C6EA10E0D6EFE
:10524E000D2EFED70C2EFCD7000000008E9A040EF9
:10525E000C6EA10E0D6E0D2EFED70C2EFCD700007F
:10526E000000E5D761EC14F00050000A01E1FAD716
:10527E0061EC14F00050010A01E1FAD761EC14F070
:10528E000050000A01E1FAD73EEC0FF0800E006EDE
:10529E00800E02011B19005C02E11A5100081BE28C
:1052AE008E8A040E0C6EA10E0D6E0D2EFED70C2ED8
:1052BE00FCD7000000008E9A040E0C6EA10E0D6E2F
:1052CE000D2EFED70C2EFCD700000000010E1A5F2B
:1052DE00000E1B5BDBD719B102D08E9801D08E88E1
:0252EE001200AC
:1052F00002011D6B050E1D5D0AE21D511B25E16EAD
:10530000000E1C21E26E200EE66E1D2BF3D71D5100
:105310001B25E16E000E1C21E26EE66A1D071D5181
:105320001B251E6F000E1C211F6F0A0E046E000E3F
:10533000056E19C200F01AC201F043EC20F008C05B
:1053400000F009C001F0300E00261EC2E1FF1FC2AE
:10535000E2FF00C0E6FF0A0E046E000E056E19C2E1
:1053600000F01AC201F043EC20F000C019F201C0B5
:105370001AF2000E011802E1000E001801E102D03D
:065380001D07CDD712004D
:0A538600000EA4BA010E006E120022
:10539000010E02013A6F010E3B6F100E3C6F010EC1
:1053A0003D6F81EC0CF0020E02013A6F010E3B6F73
:1053B000130E3C6F010E3D6F81EC0CF0010E0201EB
:1053C0003A6F150E3B6F2B0E3C6F010E3D6F81EC5B
:1053D0000CF0020E02013A6F150E3B6F290E3C6F66
:1053E000010E3D6F81EC0CF002011951030A07E137
:1053F000010E206F150E216F0BEC21F012D002016F
:105400001951040A07E1020E206F150E216F0BECF3
:1054100021F007D019C220F2010E0201216F0BEC1E
:0454200021F0120065
:10542400880E02013A6F0F0E3B6F010E3C6F010EA6
:105434003D6F3E6B47EC0CF00050FF0A02E1006A3E
:0854440002D0010E006E1200FF
:10544C000101F36BF351F125E96E000EF221EA6EC6
:10545C00EE520CE0F351F125E96E000EF221EA6EEA
:0E546C00EECF4BF24AEC05F0F32BECD712001A
:10547A000201116B126B056B066BF3C100F0F4C1EC
:10548A0001F0F5C102F0010E0101F327000EF42329
:10549A00F52300C0F6FF01C0F7FF02C0F8FF0900BC
:1054AA00F5CF00F000C000F20052D8B4C8EF3AF0CD
:1054BA0002010051250A0DE0F1C1E1FFF2C1E2FF4C
:1054CA0000C2E6FF0101F14BF22B0201114B122B34
:1054DA00D4D7036B046B056B066B2DD002010587CD
:1054EA00010E0101F327000EF423F52361D0020116
:1054FA000581010E0101F327000EF423F52358D08C
:10550A0002010583010E0101F327000EF423F5239E
:10551A004FD002010687010E0101F327000EF42382
:10552A00F52346D002010585010E0101F327000E7D
:10553A00F423F5233DD0F3C1F6FFF4C1F7FFF5C11B
:10554A00F8FF0900F5CF01F001502D0AC7E0F3C1B9
:10555A00F6FFF4C1F7FFF5C1F8FF0900F5CF01F036
:10556A000150200AC4E0F3C1F6FFF4C1F7FFF5C108
:10557A00F8FF0900F5CF01F001502B0AC1E0F3C191
:10558A00F6FFF4C1F7FFF5C1F8FF0900F5CF01F006
:10559A000150230ABEE0F3C1F6FFF4C1F7FFF5C1DB
:1055AA00F8FF0900F5CF01F00150300ABBE001D045
:1055BA0094D7020105A301D0059105A701D005954D
:1055CA00F3C1F6FFF4C1F7FFF5C1F8FF0900F5CF03
:1055DA0000F0000E016E00C019F2CCEC22F000526D
:1055EA0037E0036B046B03C200F004C201F00A0E39
:1055FA00046E000E056E41EC22F0F3C1F6FFF4C111
:10560A00F7FFF5C1F8FF0900F5CF02F002500024B8
:10561A00036F000E0120046F300E035F000E045B5F
:10562A00010E0101F327000EF423F523F3C1F6FF5F
:10563A00F4C1F7FFF5C1F8FF0900F5CF00F0000E3D
:10564A00016E00C019F2CCEC22F00052CCE134D049
:10565A00F3C1F6FFF4C1F7FFF5C1F8FF0900F5CF72
:10566A0001F001502A0A28E1F6C1E9FFF7C1EAFF71
:10567A00EECF00F0EECF01F000C0E9FF01C0EAFF73
:10568A00EECF03F2EECF04F2F6C1E9FFF7C1EAFF6B
:10569A00020EEE24006E000EEE20016EF6C1E1FF4E
:1056AA00F7C1E2FF00C0E6FF01C0E6FF010E0101FB
:1056BA00F327000EF423F523F3C1F6FFF4C1F7FF35
:1056CA00F5C1F8FF0900F5CF01F001502E0A73E188
:1056DA000101010EF327000EF423F523F3C1F6FFAF
:1056EA00F4C1F7FFF5C1F8FF0900F5CF01F0015049
:1056FA002A0A28E1F6C1E9FFF7C1EAFFEECF00F076
:10570A00EECF01F000C0E9FF01C0EAFFEECF01F2DF
:10571A00EECF02F2F6C1E9FFF7C1EAFF020EEE246C
:10572A00006E000EEE20016EF6C1E1FFF7C1E2FF46
:10573A0000C0E6FF01C0E6FF010EF327000EF423C6
:10574A00F52338D00201016B026BF3C1F6FFF4C1F5
:10575A00F7FFF5C1F8FF0900F5CF00F0000E016E62
:10576A0000C019F2CCEC22F0005224E001C200F091
:10577A0002C201F00A0E046E000E056E41EC22F020
:10578A00F3C1F6FFF4C1F7FFF5C1F8FF0900F5CF41
:10579A0002F002500024016F000E0120026F300E49
:1057AA00015F000E025B010E0101F327000EF423D4
:1057BA00F523CBD704D00201016B026B0689F3C132
:1057CA0000F0F4C101F0F5C102F0010E0101F32766
:1057DA00000EF423F52300C0F6FF01C0F7FF02C054
:1057EA00F8FF0900F5CF00F200D111C200F012C291
:1057FA0001F0CCEF3AF002010589E1D7068535D1EF
:10580A00058B068132D1068330D1058D2ED12DD15B
:10581A00058B058F2AD1F6C1E9FFF7C1EAFFEECF62
:10582A0000F0EECF01F000C0E9FF01C0EAFFEECFC1
:10583A000DF2EECF0EF2F6C1E9FFF7C1EAFF020E52
:10584A00EE24006E000EEE20016EF6C1E1FFF7C1F4
:10585A00E2FF00C0E6FF01C0E6FF000E0E1902E1FA
:10586A00000E0D1904E1090E0D6F010E0E6F0F6B7C
:10587A00106B0F510D25E96E10510E21EA6EEE5292
:10588A000BE0010E0F25006E000E1021016E00C004
:10589A000FF201C010F2EDD7015102110AE01051C6
:1058AA00025D02E10F51015D04E201C20FF202C280
:1058BA0010F20451105D02E103510F5D05E20F5130
:1058CA00035F1051045B02D0036B046B05B718D059
:1058DA0003C200F004C201F0010E035F000E045B74
:1058EA00005001100DE0F1C1E1FFF2C1E2FF200E0C
:1058FA00E66E0101F14BF22B0201114B122BE8D794
:10590A000FC202F010C203F0010E0F5D006E000E0E
:10591A001059016E00C00FF201C010F202500310BC
:10592A001BE00DC2E9FF0EC2EAFFF1C1E1FFF2C1BD
:10593A00E2FFEECFE6FF0101F14BF22B010E02016D
:10594A000D25006E000E0E21016E00C00DF201C081
:10595A000EF2114B122BD4D705A718D003C200F0B0
:10596A0004C201F0010E035F000E045B0050011037
:10597A000DE0F1C1E1FFF2C1E2FF200EE66E010186
:10598A00F14BF22B0201114B122BE8D776D5F6C157
:10599A00E9FFF7C1EAFFEECF00F0EECF01F000C059
:1059AA00E9FF01C0EAFFEECF00F2F6C1E9FFF7C155
:1059BA00EAFF020EEE24006E000EEE20016EF6C122
:1059CA00E1FFF7C1E2FF00C0E6FF01C0E6FF000EFB
:1059DA000D6F020E0E6F010E0F6F000E106F5CD767
:1059EA00C00E0513000E061340D002010051000A32
:1059FA00D8B4FBD600516C0AD8B4FDD600514C0A73
